:100000000C94F1100C9431110C9431110C943111A9
:100010000C9431110C9431110C9431110C94311158
:100020000C9431110C9431110C9431110C94311148
:100030000C9431110C9431110C9431110C94311138
:100040000C9431110C94DA190C9431110C94311177
:100050000C9431110C9495180C9431110C948697D2
:100060000C9431110C949A380C9464380C9431111E
:100070000C9431110C9431110C9431110C943111F8
:100080000C9431110C9431110C9431110C943111E8
:100090000C9431110C9431110C9431110C943111D8
:1000A0000C9431110C9431110C9431110C943111C8
:1000B0000C9431110C9431110C9431110C943111B8
:1000C0000C9431110C9431110C9431110C943111A8
:1000D0000C9431110C9431110C9431110C94311198
:1000E0000C943111084AD73B3BCE016E84BCBFFD56
:1000F000C12F3D6C74319ABD56833DDA3D00C77FF8
:1001000011BED9E4BB4C3E916BAAAABE0000008090
:100110003F05A84CCDB2D44EB93836A9020C50B91F
:10012000918688083CA6AAAA2ABE000000803F004B
:100130004E414E494E495459494E46CDCCCC3D0ACC
:10014000D7233C17B7D13877CC2B329595E6241FAF
:10015000B14F0A000020410000C84200401C462068
:10016000BCBE4CCA1B0E5AAEC59D7400407A10F33B
:100170005A00A0724E18090010A5D4E80000E876D5
:1001800048170000E40B54020000CA9A3B0000002C
:10019000E1F505000080969800000040420F000045
:1001A00000A08601000000102700000000E8030006
:1001B0000000006400000000000A000000000001D0
:1001C00000000000002C76D888DC674F0823DFC1D0
:1001D000DFAE59E1B1B796E5E3E453C63AE651998B
:1001E0007696E8E6C28426EB898C9B62ED407C6FB4
:1001F000FCEFBC9C9F40F2BAA56FA5F490055A2A6B
:10020000F75C936B6CF9676DC11BFCE0E40D47FE76
:10021000F520E6B500D0ED902E030094357705006B
:1002200080841E080000204E0A000000C80C3333F2
:1002300033330F986E12831141EF8D2114893BE601
:100240005516CFFEE6DB18D1844B381BF77C1D908A
:100250001DA4BBE424203284725E228100C9F124F3
:10026000ECA1E53D27434F4D4D554E49434154497F
:100270004F4E0044525952554E004552524F525320
:1002800000494E464F004543484F004D323400531D
:10029000544F505045442E20005072696E74657260
:1002A0002073746F707065642064756520746F20AE
:1002B0006572726F72732E204669782074686520AB
:1002C0006572726F7220616E6420757365204D399E
:1002D000393920746F20726573746172742E20280E
:1002E00054656D70657261747572652069732072F2
:1002F000657365742E20536574206974206166747B
:1003000065722072657374617274696E67290A0080
:100310004E6F20436865636B73756D2077697468F1
:10032000206C696E65206E756D6265722C204C6163
:100330007374204C696E653A20004E6F20436865E7
:10034000636B73756D2077697468206C696E6520C6
:100350006E756D6265722C204C617374204C696EF1
:10036000653A2000636865636B73756D206D697312
:100370006D617463682C204C617374204C696E65E8
:100380003A20004C696E65204E756D626572206979
:1003900073206E6F74204C617374204C696E6520FD
:1003A0004E756D6265722B312C204C617374204C3C
:1003B000696E653A20004D313130005365726961D4
:1003C0006C20737461747573206D69736D617463EF
:1003D000680A0053442072656164206572726F720E
:1003E0000A00746F6F206D75636820696E616374B5
:1003F0006976652074696D65202D2063757272655C
:100400006E7420636F6D6D616E643A20002121204F
:100410004B494C4C20636175736564206279200000
:100420004D6564696120496E73657274656400622C
:100430007573793A2070617573656420666F7220F8
:10044000696E7075740A00627573793A207061750F
:1004500073656420666F7220757365720A00627539
:1004600073793A2070726F63657373696E670A00FF
:100470006563686F3A004572726F723A002F2F61A0
:100480006374696F6E3A006E6F7469666963617454
:10049000696F6E20006E6F74696669636174696F5D
:1004A0006E2000656E6400627574746F6E00486F34
:1004B00074656E6420746F6F20636F6C640A0070E3
:1004C000617573656400486561642063616E6E6F79
:1004D00074206265207061726B6564005061757391
:1004E000650020440020204D323030205300202869
:1004F00044697361626C6564293A0046696C616D98
:10050000656E742073657474696E67730020204D86
:100510003230312058004D617820416363656C654D
:10052000726174696F6E2028756E6974732F7332EF
:10053000290020204D3230332058004D617820664C
:1005400065656472617465732028756E6974732FB4
:1005500073290020520020204D32303420500041B9
:100560006363656C65726174696F6E2028756E696E
:1005700074732F7332292028503C7072696E742D69
:10058000616363656C3E20523C7265747261637492
:100590002D616363656C3E20543C74726176656CBA
:1005A0002D616363656C3E2900204A0020540020C1
:1005B000530020204D323035204200416476616E78
:1005C0006365642028423C6D696E5F7365676D6585
:1005D0006E745F74696D655F75733E20533C6D6921
:1005E0006E5F66656564726174653E20543C6D693A
:1005F0006E5F74726176656C5F6665656472617466
:10060000653E204A3C6A756E635F6465763E2900EC
:1006100020440020490020204D3330312050004834
:100620006F74656E642050494400204400204900E6
:1006300020204D333034205000426564205049441E
:100640000020440020204D35393320592046002019
:10065000440020204D3539332058204600496E7023
:1006600075742053686170696E6700203B002055E7
:100670000020204D363033204C0046696C616D659A
:100680006E74206C6F61642F756E6C6F6164003BDB
:10069000200020496E76616C6964206578747275FB
:1006A0006465722000536C6565702E2E2E0070728A
:1006B0006F6D70745F00626567696E004D30205326
:1006C000746F70004D312053746F70004E6F204D69
:1006D0006F76652E00456E642066696C65206C69D6
:1006E00073740A00426567696E2066696C65206CE8
:1006F0006973740A004E6F206D656469610A005366
:100700004420636172642072656C65617365640A7C
:1007100000726573756D6500526573756D696E67FE
:1007200020534400286E6F2066696C65290043756C
:100730007272656E742066696C653A20002E0A003C
:1007400044656C6574696F6E206661696C65642CC4
:100750002046696C653A200046696C652064656CCA
:10076000657465643A0043616E6E6F74206F7065E6
:100770006E207375626469722000256973002569B3
:100780006D20256973002569682025696D2025691C
:100790007300256964202569682025696D20256915
:1007A00073002569792025696420256968202569F9
:1007B0006D20256973005072696E742074696D65CF
:1007C0003A20006F6B006F666600860281027A0233
:1007D0007302650244454255473A004D313133209A
:1007E000530047656E697573204F46462E007D7D28
:1007F0007D0A002C7A3A002C793A007D2C6D6178C4
:100800003A7B783A002C7A3A002C793A00776F726A
:100810006B3A7B6D696E3A7B783A007D7D2C002CBB
:100820007A3A002C793A007D2C6D61783A7B783ADF
:10083000002C7A3A002C793A00617265613A7B6645
:10084000756C6C3A7B6D696E3A7B783A00434F4E1B
:100850004649475F4558504F5254004D454154500A
:1008600041434B00434F4F4C45525F54454D50451B
:10087000524154555245004348414D4245525F5400
:10088000454D5045524154555245004241425953FD
:1008900054455050494E470041524353004D4F5428
:1008A000494F4E5F4D4F44455300544845524D41CA
:1008B0004C5F50524F54454354494F4E0045585495
:1008C000454E4445445F4D323000435553544F4DDF
:1008D0005F4649524D574152455F55504C4F414438
:1008E000004C464E5F5752495445004C4F4E475FAF
:1008F00046494C454E414D45004155544F52455097
:100900004F52545F53445F53544154555300534422
:100910005F575249544500524550454154004D558A
:100920004C54495F564F4C554D450053444341523A
:10093000440050524F4D50545F535550504F5254F5
:1009400000484F53545F414354494F4E5F434F4D0E
:100950004D414E445300454D455247454E43595F26
:1009600050415253455200434153455F4C4947481B
:10097000545F4252494748544E45535300544F47E1
:10098000474C455F4C494748545300534F465457D2
:100990004152455F504F574552004255494C445FC4
:1009A00050455243454E54004C4556454C494E47E0
:1009B0005F44415441005A5F50524F4245005255E6
:1009C0004E4F5554004155544F4C4556454C0050E0
:1009D00052494E545F4A4F420050524F475245537E
:1009E00053004155544F5245504F52545F54454D5A
:1009F00050004155544F5245504F52545F504F5341
:100A000000564F4C554D45545249430045455052B0
:100A10004F4D0042494E4152595F46494C455F5443
:100A200052414E534645520053455249414C5F583E
:100A30004F4E5F584F4646004649524D574152452A
:100A40005F4E414D453A4D61726C696E20322E31D8
:100A50002E322E3520284A616E2020352032303249
:100A6000352030393A35353A31352920534F5552F2
:100A700043455F434F44455F55524C3A676974683C
:100A800075622E636F6D2F4D61726C696E4669726F
:100A90006D776172652F4D61726C696E2050524F97
:100AA000544F434F4C5F56455253494F4E3A312EA7
:100AB00030204D414348494E455F545950453A47CF
:100AC000656E6975732045585452554445525F43CD
:100AD0004F554E543A3120555549443A6365646543
:100AE000326132662D343161322D343734382D394C
:100AF0006231322D6335356336326633363766669A
:100B0000002F2F003F4A206F7574206F662072619E
:100B10006E67652028302E303120746F20302E33E0
:100B2000290A002058004F4646004F4E0020204D15
:100B300061783A2000200020204D696E3A20002084
:100B40003B200020204D323131205300536F66741A
:100B500020656E6473746F707300250A0046523A04
:100B60000020466C6F773A200064697300656E0060
:100B700043290A0061626C656420286D696E2074E7
:100B8000656D702000436F6C6420657874727564C5
:100B900065732061726520004F666673657473200B
:100BA0004170706C69656400546F6F2066617220DB
:100BB00066726F6D204D494E2F4D41580A004545D4
:100BC00050524F4D204F4B0A00206F72203020743E
:100BD0006F2064697361626C650A003F46726571DB
:100BE00075656E637920284629206D7573742062BF
:100BF000652067726561746572207468616E20009B
:100C00003F5A657461202844292076616C756520FF
:100C10006F7574206F662072616E67652028302DB5
:100C200031290A002E0A002028302D3130290020D9
:100C300076616C7565206F7574206F662072616EC9
:100C4000676500416476616E6365204B3D004D38F9
:100C500034005072696E7420446F6E6500446F6E8C
:100C600065207072696E74696E672066696C650ACA
:100C7000004D3737004D333100496E76616C696441
:100C80002065787472756465720A0020204D3230D8
:100C900036205800486F6D65206F66667365740076
:100CA000446966663A2020200046726F6D53747066
:100CB0003A00537465707065723A005261773A2059
:100CC000202020000A4C6F676963616C3A00436F13
:100CD000756E7420453A004361703A0047322F47E1
:100CE000332062616420706172616D657465727336
:100CF0000A0020573A0042656420436F6F6C696EAA
:100D0000672E2E2E004265642048656174696E6707
:100D10002E2E2E00206661696C656421204261647C
:100D2000206865617465722069640A005049442036
:100D30004175746F74756E650023646566696E65D0
:100D40002044454641554C545F0000626564004BA9
:100D50006420004B6920004B7020005049442074EF
:100D6000756E696E6720646F6E65002066696E69D6
:100D700073686564212050757420746865206C6107
:100D80007374204B702C204B6920616E64204B647F
:100D900020636F6E7374616E74732066726F6D2062
:100DA00062656C6F7720696E746F20436F6E666941
:100DB0006775726174696F6E2E680A00504944202D
:100DC0004175746F74756E6500206661696C656449
:100DD000212074696D656F75740A00504944204183
:100DE00075746F74756E65004175746F74756E659A
:100DF000206661696C6564212054696D656F757446
:100E00002E00206661696C6564212054656D7065F3
:100E100072617475726520746F6F20686967680A03
:100E200000504944204175746F74756E6500204B05
:100E3000643A2000204B693A2000204B703A200091
:100E400020436C617373696320504944200A002079
:100E50004E6F206F76657273686F6F740A0020544E
:100E6000753A2000204B753A2000206D61783A20B9
:100E700000206D696E3A200020643A2000206269EB
:100E800061733A200048656174696E672E2E2E00EA
:100E90002073746172740A00504944204175746F64
:100EA00074756E65004175746F74756E652066614A
:100EB000696C6564212054656D706572617475722A
:100EC0006520746F6F20686967682E00206661690D
:100ED0006C6564212054656D70657261747572650E
:100EE00020746F6F20686967680A00504944204188
:100EF00075746F74756E6500504944204175746F48
:100F000074756E6500486F6D696E67204661696C27
:100F10006564006F70656E005452494747455245FD
:100F200044003A20007A5F6D696E00795F6D696EEA
:100F300000785F6D696E005265706F7274696E67DC
:100F400020656E6473746F70207374617475730AB6
:100F50000020746F6F206C6F6E67206578747275F7
:100F600073696F6E2070726576656E7465640A00D1
:100F700020636F6C6420657874727573696F6E207E
:100F800070726576656E7465640A00000000C000CA
:100F900000A0C0000000005761726E696E673A20C1
:100FA000486F6D696E672042756D7020446976697F
:100FB000736F72203C20310A0002020400005E437D
:100FC0000000614300005C430000A0400000A0401E
:100FD0000000004000005C4300005C4300005C43F4
:100FE000000000C00000A0C0000000005365747441
:100FF000696E67732053746F72656400290A00205C
:1010000062797465733B2063726320005365747466
:10101000696E67732053746F7265642028004545BC
:1010200050524F4D20496E697469616C697A6564EC
:101030000A0048617264636F646564204465666198
:10104000756C742053657474696E6773204C6F619E
:101050006465640020286D6D290020204D393030F2
:10106000204B004C696E65617220416476616E634D
:10107000650020204D3134392043203B20556E69D6
:10108000747320696E2043656C736975730A00542C
:10109000656D706572617475726520556E697473E3
:1010A000002020473231203B004C696E6561722080
:1010B000556E69747300454550524F4D20646174FC
:1010C0006173697A65206572726F722E0A004572CB
:1010D000723A20454550524F4D204352430020283C
:1010E00063616C63756C6174656429210A00202159
:1010F0003D2000454550524F4D20435243206D69DD
:10110000736D61746368202D202873746F72656439
:10111000292000454550524F4D20436F7272757023
:10112000740A002053697A653A2000496E64657834
:101130003A200053746F7265642073657474696E2D
:1011400067732072657472696576656400290A00A8
:101150002062797465733B2063726320002073748E
:101160006F7265642073657474696E67732072654D
:10117000747269657665642028000000964300005B
:10118000964300004842000020420000A0420000B8
:10119000A0420000C8430080DE43D0070000D00713
:1011A00000006400000010270000204D61726C698F
:1011B0006E3D563838290A00454550524F4D20762D
:1011C000657273696F6E206D69736D6174636820F9
:1011D00028454550524F4D3D0024F404D9201BC4EE
:1011E0000C5C0E9804C4095F0265077101F405F9EF
:1011F00000FB04B30048048700C10369005803558D
:101200000003034500BE023A008402310053022A63
:10121000002902250004022000E4011C00C8011975
:1012200000AF011700980114008401130071011030
:10123000006101100051010E0043010D0036010B49
:10124000002B010B0020010B00150109000C010906
:101250000003010800FB000800F3000800EB000792
:1012600000E4000600DE000600D8000600D20006FA
:1012700000CC000500C7000500C2000500BD000449
:1012800000B9000400B5000400B1000400AD000482
:1012900000A9000400A5000300A20003009F0004B1
:1012A000009B0003009800030095000200930003D8
:1012B00000900003008D0002008B000300880002F4
:1012C000008600020084000300810002007F00020B
:1012D000007D0002007B000200790002007700011F
:1012E000007600020074000200720001007100022A
:1012F000006F0002006D0001006C0002006A000136
:10130000006900020067000100660001006500013D
:101310000064000200620001006100010060000141
:10132000005F0002005D0001005C0001005B000145
:10133000005A000100590001005800010057000147
:101340000056000100550001005400010053000048
:101350000053000100520001005100010050000143
:10136000004F0001004E0000004E0001004D000142
:10137000004C0001004B0000004B0001004A00013E
:10138000004900010048000000480001004700013A
:101390000046000000460001004500000045000135
:1013A000004400010043000000430001004200002F
:1013B0000042000100410000004100010040000126
:1013C000003F0000003F0001003E0000003E000121
:1013D000003D0000003D0001003C0000003C00001A
:1013E000003C0001003B0000003B0001003A00000F
:1013F000003A000100390000003900010038000007
:1014000000380000003800010037000000370001FC
:1014100000360000003600000036000100350000F4
:1014200000350000003500010034000000340000E9
:1014300000340001003300000033000000330001DD
:1014400000320000003200000032000100310000D4
:1014500000310000003100010030000000300000C9
:1014600000300001002F0000002F0000002F0000BE
:10147000002F0001002E0000002E0000002E0001B1
:10148000002D0000002D0000002D0000002D0001A7
:10149000002C0000002C0000002C0000002C00019B
:1014A000002B0000002B0000002B0000002B00018F
:1014B000002A0000002A0000002A0000002A000183
:1014C0000029000000290000002900000029000078
:1014D000002900010028000000280000002800006A
:1014E000002800000028000100270000002700005D
:1014F0000027000000270000002700010026000050
:101500000026000000260000002600000026000142
:101510000025000000250000002500000025000037
:101520000025000000250001002400000024000028
:10153000002400000024000000240001002300001B
:10154000002300000023000000230000002300000F
:101550000023000000230001002200000022000000
:1015600000220000002200000022000000220001F2
:1015700000210000002100000021000000210000E7
:1015800000210000002100000021000100200000D7
:1015900000200000002000000020000000200000CB
:1015A000002000000020000000200001001F0000BB
:1015B000001F0000001F0000001F0000001F0000AF
:1015C000001F0000001F0001001E0000001E0000A0
:1015D000001E0000001E00000024F4D43050C38E12
:1015E00020C2A24017828B7011127A910D816CD9A2
:1015F0000AA861E108C7586607615143061E4B5DA2
:1016000005C145A7041A411104093D9803713931F8
:10161000034036DB0265339102D4305402802E1D24
:1016200002632CEE01752AC501B028A001102781A4
:10163000018F2564012B244B01E0223401AC211FD2
:10164000018D200D01801FFC00841EED00971DDF21
:1016500000B81CD200E61BC600201BBC00641AB2F6
:1016600000B219A8000A19A0006A189900D11791B0
:101670000040178B00B516840031167E00B3157933
:10168000003A157300C7146F0058146A00EE136611
:10169000008813630025135E00C7125B006C1257AD
:1016A0000015125400C111510070114F0021114B4F
:1016B00000D61049008D1047004610440002104229
:1016C00000C00F4000800F3E00420F3C00060F3B61
:1016D00000CB0E3800930E37005C0E3500270E3419
:1016E00000F30D3200C10D3100900D3000600D2E61
:1016F00000320D2D00050D2C00D90C2B00AE0C294D
:1017000000850C29005C0C2700350C27000E0C26E8
:1017100000E80B2400C40B2400A00B23007D0B2346
:10172000005A0B2100390B2100180B2000F80A1F6A
:1017300000D90A1E00BB0A1E009D0A1D00800A1D5A
:1017400000630A1C00470A1B002C0A1B00110A1A1E
:1017500000F7091A00DD091900C4091900AB0919BD
:1017600000920917007B091800630917004C09163D
:101770000036091600200916000A091500F508159B
:1017800000E0081400CC081400B8081400A40814E1
:1017900000900813007D0812006B0813005808120F
:1017A0000046081200340811002308110012081125
:1017B0000001081100F0071000E0071000D007102A
:1017C00000C0071000B0070F00A107100091070E1E
:1017D0000083070F0074070F0065070E0057070E00
:1017E0000049070E003B070D002E070E0020070DD5
:1017F0000013070D0006070D00F9060C00ED060D9D
:1018000000E0060C00D4060C00C8060C00BC060C58
:1018100000B0060C00A4060B0099060C008D060B08
:101820000082060B0077060B006C060B0061060AAF
:101830000057060B004C060A0042060A0038060A4A
:10184000002E060A0024060A001A060A00100609DD
:101850000007060A00FD050900F4050900EB05096B
:1018600000E2050900D9050900D0050900C70509EE
:1018700000BE050900B5050800AD050800A505096D
:10188000009C050800940508008C050800840508E4
:10189000007C050800740508006C05070065050854
:1018A000005D050700560508004E050700470507BF
:1018B000004005080038050700310507002A050724
:1018C00000230507001C050600160507000F050785
:1018D000000805060002050700FB040600F50407E2
:1018E00000EE040600E8040600E2040700DB04063C
:1018F00000D5040600CF040600C9040600C3040690
:1019000000BD040600B7040600B1040500AC0406DF
:1019100000A6040600A00405009B0406009504052B
:1019200000900406008A0405008504050080040672
:10193000007A04050075040500700405006B0405B9
:101940000066040500610405005C040500570405F9
:1019500000520405004D0405004804050043040539
:10196000003E0404003A0405003504050030040478
:10197000002C04050027040400230405001E0404B1
:10198000001A04040016040500110404000D0404E8
:1019900000090405000404040000040400FC03041E
:1019A00000F8030400F4030400F0030400EC030453
:1019B00000E8030400E4030400E0030400DC030483
:1019C00000D8030400D4030400D0030400CC0304B3
:1019D00000C8030300C503030020436F756E742025
:1019E000583A00004500626564002C2073797374D6
:1019F000656D2073746F7070656421204865617433
:101A000065725F49443A20004572723A204D415850
:101A100054454D50004D415854454D502074726905
:101A20006767657265640048656174696E67204622
:101A300061696C65640048656174696E6720666100
:101A4000696C6564004D353234004D3131322053BC
:101A5000687574646F776E004572723A204D494E16
:101A600054454D50004D494E54454D5020747269B7
:101A700067676572656400544845524D414C205279
:101A8000554E4157415900546865726D616C205242
:101A9000756E6177617900202F002042403A002066
:101AA000403A0020573A0020583A002053004D3168
:101AB000303620500000002100240027002A002D8D
:101AC000003000330001010000040107010A017C1D
:101AD0003C3E5E2B3D3F2F5B5D3B2C2A225C00434E
:101AE000616E6E6F74206F70656E207375626469CD
:101AF00072200053442063617264206F6B0A006F90
:101B000070656E526F6F74206661696C65640A005F
:101B1000766F6C756D652E696E6974206661696C8F
:101B200065640A004E6F20534420636172640A00AA
:101B30002E0A006F70656E206661696C65642C20EA
:101B400046696C653A200046696C652073656C6572
:101B5000637465640A002053697A653A2000466917
:101B60006C65206F70656E65643A2000454E4420B8
:101B7000535542524F5554494E450A002220706F2A
:101B800073002220706172656E743A2200535542D0
:101B9000524F5554494E452043414C4C207461727C
:101BA0006765743A220053756263616C6C204F76EE
:101BB0006572666C6F77004578636565646564205F
:101BC0006D617820535542524F5554494E4520641B
:101BD000657074683A0057726974696E6720746F33
:101BE0002066696C653A20004E6F74205344207063
:101BF00072696E74696E670A005344207072696E70
:101C000074696E6720627974652000667265736816
:101C100000646F696E67002066696C653A20004E4B
:101C20006F7720000A4D3234004D32332025730087
:101C30002F6175746F25632E67002001400130010C
:101C40003B01400136016001310170012C0190011E
:101C50002701B0012201C0011D01F001180110028D
:101C6000130130020E016002090190020401C0025A
:101C7000FF000003FA004003F5008003F000D003EA
:101C8000EB002004E6007004E100E004DC00400505
:101C9000D700C005D2004006CD00D006C80080079E
:101CA000C3003008BE00F008B900C009B400B00A93
:101CB000AF00B00BAA00D00CA500000EA000500F82
:101CC0009B00C01096005012910000148C00C015AB
:101CD0008700B0178200B0197D00D01B7800001E6D
:101CE000730040206E0090226900F02464004027B9
:101CF0005F0090295A00E02B5500102E5000203034
:101D00004B0010324600E033410090353C00103764
:101D1000370070383200A0392D00B03A2800A03BBF
:101D20002300603C1E00103D1900903D1400103E41
:101D30000F00703E0A00C03E0500003F0000403F1B
:101D4000FBFF803FF6FFC03FF1FF2020506C616E2B
:101D50006E657242756666657242797465733A2083
:101D6000002046726565204D656D6F72793A2000DE
:101D700020436F6D70696C65643A204A616E202063
:101D80003520323032350A00204C61737420557092
:101D900064617465643A20323032342D31312D3132
:101DA00038207C20417574686F723A20286467740B
:101DB0006168656E6F2C2047656E697573290A002E
:101DC0004D61726C696E20322E312E322E350A0032
:101DD00020536F6674776172652052657365740A6B
:101DE00000205761746368646F672052657365747F
:101DF0000A002042726F776E206F757420526573EF
:101E000065740A002045787465726E616C205265B5
:101E10007365740A00506F77657255700A007374A9
:101E20006172740A004732385859004D31303031F0
:101E3000006F6B006572726F722077726974696EE1
:101E40006720746F2066696C650A00446F6E6520B8
:101E5000736176696E672066696C652E0A004D3283
:101E60003900656E6473746F7073206869743A200A
:101E70000000002200250028002B002E0031003435
:101E80000002010000050108010B01050505050719
:101E90000508080808020202020A0A0808040404E5
:101EA0000401010101010101010303030303030311
:101EB00003040707070C0C0C0C0C0C0C0C020202A0
:101EC0000206060606060606060B0B0B0B0B0B0B93
:101ED0000B01021020200808102040102040800232
:101EE0000102010804020101020408102040808060
:101EF00040201008040201800402018040201008E4
:101F000004020108040201010204081020408001BB
:101F10000204081020408000000A0B02090C0D0E7C
:101F2000080703040100000000000000000000009A
:101F300000000000000000000000000000000000A1
:101F4000000000121110000000000000000000005E
:101F500000000000000000000000000000D21F0090
:101F600000DA170000E50F00008A0900004C0500A8
:101F700000CE02000071010000BB0000004572723B
:101F80006F722077726974696E6720746F2045459F
:101F900050524F4D210A00DB0FC93F45BCDA3F8F3D
:101FA000B30240FCF0274056946140FE4B9B4084B6
:101FB000A5D840E0231841346A5641E85997416456
:101FC000DBD5416E271742B4B75542CE1A9742C8A7
:101FD000AED542B5885A43D40684BFA65FA7BF7466
:101FE00043E0BF10B11AC01C2C58C0E8F697C0B827
:101FF00049D6C04E4E17C124D355C1802497C1A0E5
:10200000B5D5C1121A17C244AE55C2781797C26C23
:10201000ACD5C267885AC320746F6F206C6F6E672F
:1020200020657874727573696F6E2070726576655D
:102030006E7465640A0020636F6C64206578747246
:102040007573696F6E2070726576656E7465640A6B
:102050000073686F7700626567696E00507572671C
:10206000654D6F72650050617573656400436F6EF6
:1020700074696E7565004C6F61642046696C616DB2
:10208000656E74205400496E736572742066696CC5
:10209000616D656E7420616E642073656E64204DA1
:1020A0003130380A0053656E64204D313038207469
:1020B0006F20726573756D650A00496E7365727481
:1020C0002066696C616D656E7420616E6420736555
:1020D0006E64204D3130380A0052656865617420A5
:1020E000446F6E6500526568656174696E672E2E77
:1020F0002E005265686561740048656174657220E0
:1021000054696D656F75740053656E64204D313090
:102110003820746F2068656174206E6F7A7A6C6500
:102120000A004E6F7A7A6C65205061726B656400AC
:10213000726573756D6564004469736D69737300CE
:10214000526573756D696E6700FFFFFFA71AAD21B9
:10215000A921A521204500205A0020590020204D0A
:102160003932205800537465707320706572207581
:102170006E697400220A00556E6B6E6F776E206375
:102180006F6D6D616E643A202200486F6D65202589
:1021900073204669727374006F6B0A005265736531
:1021A0006E643A200020453A00205A3A0020593AFD
:1021B00000583A00706F7765726F666600507269FA
:1021C0006E7465722068616C7465642E206B696C36
:1021D0006C28292063616C6C6564210A0000E3AC03
:1021E0008BB511241FBECFEFD1E2DEBFCDBF00E023
:1021F0000CBF84B78093121B14BE0FB6F894A89539
:1022000080916000886180936000109260000FBE32
:1022100013E0A0E0B2E0ECEDF7E801E00BBF02C094
:1022200007900D92A634B107D9F72BE1A6E4B3E0ED
:1022300001C01D92A231B207E1F710E1C0EFD0E179
:1022400000E006C021970109802FFE010E9479C09D
:10225000CF3ED10780E00807A9F70E944CAE0C944E
:10226000DDC30C940000CF93DF93C3EED9E120E0EF
:1022700030E048E452E460918816709189168091AC
:102280008A1690918B160E94CBC287FF13C080E004
:10229000FE01C4912091020190E002C095958795BE
:1022A000CA95E2F780FD0EC0207120930001DF91F6
:1022B000CF910895FE01949181E001C0880F9A9515
:1022C000EAF7E6CF2095F0CF8091EF07882339F029
:1022D0006091F8167091F9168091FA16089560E0F1
:1022E00070E080E008954F925F926F927F928F929C
:1022F0009F92AF92BF92CF92DF92EF92FF920F9395
:102300001F93CF930091DF071091E0072091E10721
:102310003091E2078090CE169090CF16A090D01604
:10232000B090D1164091E3075091E4076091E50722
:102330007091E607C090BD16D090BE16E090BF1613
:10234000F090C016C0E1FC01AFEDB7E001900D9236
:10235000CA95E1F7E091C916E0FF29C028013901CB
:10236000481859086A087B08530142010091DF07A9
:102370001091E0072091E1073091E207080D191D47
:102380002A1D3B1D0093DF071093E0072093E10710
:102390003093E207FC010081118122813381009397
:1023A000CE161093CF162093D0163093D1162091CD
:1023B000B81620FF27C08A019B010C191D092E09A0
:1023C0003F094091E3075091E4076091E507709160
:1023D000E607400F511F621F731F4093E30750939E
:1023E000E4076093E5077093E607FC01848195811B
:1023F000A681B7818093BD169093BE16A093BF1699
:10240000B093C016CF911F910F91FF90EF90DF9086
:10241000CF90BF90AF909F908F907F906F905F9084
:102420004F90089521E030E0082E02C0220F331FA4
:102430000A94E2F7209530959091EC03292320939C
:10244000EC03813061F020F0823071F081E008957A
:102450005F9A8091A7088E7F8093A708F7CF8A9A0A
:102460008091A7088D7FF8CF8091080180958170B9
:1024700080930601479A8091A7088B7FEDCF20912A
:102480007E0730917F07F901E351FC4F90819695CB
:102490009695937081E0913009F080E0409135028B
:1024A0005091360260917C0770917D074F5F5F4FBE
:1024B0002F5F3F4F2F3291E0390711F430E020E0D9
:1024C0006217730721F1F901E351FC4F9081969552
:1024D0009695937059F330937F0720937E0750931E
:1024E0003602409335024091DA075091DB07609144
:1024F000D2077091D307461B570B220F331FF901E8
:10250000E45EFA4F20813181240F351F0AC0709399
:102510007F0760937E0750933602409335022FEF7A
:102520003FEF3093400220933F02089520917A07B5
:1025300030917B07F901E351FC4F9081937081E06A
:10254000913009F080E0409137025091380260915B
:102550007C0770917D074F5F5F4F2F5F3F4F2F329A
:1025600091E0390711F430E020E06217730711F1B0
:10257000F901E351FC4F9081937069F330937B072D
:1025800020937A0750933802409337024091DC073A
:102590005091DD076091D2077091D307461B570B0E
:1025A000220F331FF901E45EFA4F20813181240F9D
:1025B000351F0AC070937B0760937A0750933802E7
:1025C000409337022FEF3FEF30933E0220933D02BE
:1025D0000895CF92DF92EF92FF928091EA038823D1
:1025E00009F457C0C090E603D090E703E090E803F9
:1025F000F090E90320E030E0A901C701B6010E9494
:10260000E4B9882309F445C020E030E040E05FE30E
:10261000C701B6010E9449BA9B01AC010E9449BAA8
:102620002BED3FE049E450E40E9449BA9B01AC0124
:1026300060E070E080E89FE30E9480C16B017C0154
:10264000C092D903D092DA03E092DB03F092DC036C
:102650006091170270911802072E000C880B990BDD
:102660000E94EAB92AE037ED43E25CE30E9449BAEE
:10267000A70196010E9449BA6093570270935802CD
:102680008093590290935A02FF90EF90DF90CF9081
:102690000895C12CD12C80E8E82E8FE3F82ED0CFFE
:1026A00090916F0081E091FD02C080E008959091CB
:1026B0006F009D7F90936F000895FC017081472FFC
:1026C00050E0062E02C0559547950A94E2F740FF68
:1026D00014C04091CC0350E0062E02C0559547959A
:1026E0000A94E2F740FF09C021E030E001C0220F68
:1026F0006A95EAF72095272320830895CF93DF93E7
:1027000024E0829FC0011124EC01CE5FD94EFC0170
:10271000E755F74F83539C4FDC012D913D914D912F
:102720005C9160817181828193810E94A4C06883E1
:1027300079838A839B83DF91CF9108958F929F92B3
:10274000AF92BF92CF92DF92EF92FF92CF93DF933F
:1027500020911B02222309F48EC0EC018091CC034E
:10276000E82E80FF2CC080901D0290901E02A09049
:102770001F02B0902002288139814A815B81C50106
:10278000B4010E94CBC2181624F488829982AA82CE
:10279000BB828090290290902A02A0902B02B090D8
:1027A0002C02288139814A815B81C501B4010E94D4
:1027B000E4B987FF04C088829982AA82BB82E1FEC5
:1027C0002CC08090210290902202A0902302B09011
:1027D00024022C813D814E815F81C501B4010E949C
:1027E000CBC2181624F48C829D82AE82BF82809068
:1027F0002D0290902E02A0902F02B09030022C81DA
:102800003D814E815F81C501B4010E94E4B987FF1B
:1028100004C08C829D82AE82BF82E2FE2CC0C0903A
:102820002502D0902602E0902702F0902802288509
:1028300039854A855B85C701B6010E94CBC218164F
:1028400024F4C886D986EA86FB86C0903102D090EF
:102850003202E0903302F0903402288539854A85AF
:102860005B85C701B6010E94E4B987FF04C0C88632
:10287000D986EA86FB86DF91CF91FF90EF90DF90BB
:10288000CF90BF90AF909F908F900895CF93DF939C
:10289000DB01F9019C919130C1F0943080F09450AB
:1028A0009C938830D1F480819181009771F00197D9
:1028B00091838083480F591FEA01188206C08C3526
:1028C00039F49C5F9C93943041F4DF91CF9108954B
:1028D0008B3339F781E08C93F8CF20813181B901B6
:1028E0006F5F7F4F71836083420F531FEA018883BC
:1028F000808191818F3591056CF7E7CF0F931F93FE
:1029000081E0009102171091031720910417309174
:1029100005174091FE165091FF16609100177091B7
:102920000117041715072607370708F480E01F91E1
:102930000F91089590E080E008952091F71683307C
:1029400021F425FD0CC024FD0CC030E0A90102C01B
:10295000559547958A95E2F7CA018170089581E0FF
:10296000089580E008958091B30384FD0BC08091A9
:10297000B50387FD07C09091B603937081E019F409
:1029800080E0089581E008952FEB280F2A3108F0A8
:1029900047C0E22FF0E08091B3039091B403A0917F
:1029A000B503B091B60304C0B695A79597958795E2
:1029B0002A95D2F780FD02C081700895E756FC4F3A
:1029C000E081EE2341F18091751390917613E80F29
:1029D000F92FF11D808190ED980F9A3030F08E32F2
:1029E00051F4818180538A3098F4F0939503E093F9
:1029F000940381E008958D3211F08B3249F4818186
:102A000090ED980F9A3088F38E3211F48281EACFDC
:102A1000F0E0E0E0EACF1092950310929403E9CF42
:102A200080E008958091DD0381110EC0209119028C
:102A300030911A022150310981E040918C16509159
:102A40008D16421753070CF080E008950F931F93E3
:102A50008091F012813019F50E94D4930091C00347
:102A60001091C1032091C2033091C303601B710B0D
:102A7000820B930B28EE33E040E050E00E940EC042
:102A80006091BC037091BD038091BE039091BF0320
:102A9000620F731F841F951F1F910F9108956091FE
:102AA000C4037091C5038091C6039091C703D6CF2C
:102AB0008091F012813079F482E08093F0120E94CC
:102AC000D4936093C4037093C5038093C60390931B
:102AD000C70381E0089580E00895CF93DF93C0910C
:102AE0006016D0916116209729F160915C16709163
:102AF0005D1680915E1690915F160E94E8C16E5F30
:102B00007F4F24976C177D07ACF47093FC0760939C
:102B1000FB070E94D493605A75418F4F9F4F60937B
:102B2000FD077093FE078093FF0790930008DF91E5
:102B3000CF9108951092FD071092FE071092FF07A3
:102B400010920008F4CF4F925F926F927F928F9213
:102B50009F92AF92BF92CF92DF92EF92FF920F932C
:102B60001F93CF93DF93082FEB01C880D980EA80B1
:102B7000FB8020E030E0A901C701B6010E94E4B962
:102B800018160CF079C020E030E040E85FE3C701A0
:102B9000B6010E94CBC287FF76C029E43AE046EC3A
:102BA00052ECC701B6010E9449BA21E931EE40E872
:102BB00052E40E94A4C02B013C01A7019601C70169
:102BC000B6010E9449BA4B015C012FE237E942EF9E
:102BD00050EC0E9449BAA30192010E94A4C02B01AB
:102BE0003C01A5019401C701B6010E9449BA29EF31
:102BF0003AE44CE252E40E9449BAA30192010E94D5
:102C0000A4C00E9419C26B017C01BFB6F894C70131
:102C1000B6010E94EDC1162FA701960160E070E099
:102C200080E093E40E94A3C00E94EDC101112FC077
:102C30001093CD166093CC1688819981AA81BB81AF
:102C40008093C5169093C616A093C716B093C81666
:102C5000B7FE01C07894DF91CF911F910F91FF9043
:102C6000EF90DF90CF90BF90AF909F908F907F902C
:102C70006F905F904F900895C12CD12C80E8E82E82
:102C800082E4F82EC2CFC12CD12C7601BECF109396
:102C9000BC166093BB1688819981AA81BB81809301
:102CA000B4169093B516A093B616B093B716D0CFBE
:102CB0004091EB0321E0422768E070E00C944A90D9
:102CC0004091EB0321E0422764E070E00C944A90CD
:102CD0004091EB0321E0422761E070E00C944A90C0
:102CE0004091EB0321E042276CE070E00C944A90A5
:102CF0004091EB0321E0422761E070E00C944A90A0
:102D00004091EB0321E0422768E070E00C944A9088
:102D10004091EB0321E042276CE070E00C944A9074
:102D200041E061E070E00C944A9041E062E070E0C4
:102D30000C944A904091EB0321E042270C944A9076
:102D400064E070E00C946D9362E070E00C946D931D
:102D500061E070E00C946D9361E070E00C946D9311
:102D60006CE070E00C946D93AF92BF92CF92DF92C3
:102D7000EF92FF920F931F93CF93DF93CAE2D3E1B9
:102D80000EEB18E08AE3A82E83E1B82EC12CD12CDB
:102D90007601C39469917991899199910E94E8B9DA
:102DA000288939894A895B890E9449BA0E94EDC104
:102DB000F80161937193819391938F01C616D706A1
:102DC000E806F90610F46B017C01AC16BD0611F79C
:102DD0006FEF7FEFCB01A70196010E940EC02093F9
:102DE000CE083093CF084093D0085093D10823EFFA
:102DF00034E045E35FE36091BA087091BB088091CD
:102E0000BC089091BD080E9449BA2AE136EF45E915
:102E10005EE30E9480C16B017C016091361370916A
:102E2000371380913813909139130E94E8B99B01B0
:102E3000AC01C701B6010E9449BA0E9411C3609358
:102E4000D2087093D3088093D4089093D508DF916B
:102E5000CF911F910F91FF90EF90DF90CF90BF9097
:102E6000AF9008950F931F93CF93DF930EE313E179
:102E7000CBEDD8E0F80121913191419151918F0131
:102E800060E070E080E89FE30E9480C169937993DD
:102E900089939993F8E0CB3EDF0761F70E94A791F1
:102EA000DF91CF911F910F915FCFCF93DF93CDB77C
:102EB000DEB72C970FB6F894DEBF0FBECDBF1982D8
:102EC0001A821B821C821D821E821F82188619860E
:102ED0001A861B861C86AE014F5F5F4FBC018BE5D7
:102EE00092E00E94EF922C960FB6F894DEBF0FBED0
:102EF000CDBFDF91CF910895809194039091950378
:102F0000009731F04AE050E070E060E00C9444B883
:102F100060E070E0CB010895809194039091950357
:102F2000009731F04AE050E070E060E00C9418B790
:102F300060E070E0CB010895EFDFCB010895ECDF96
:102F400097FD0AC0E9DF6F3F71058105910509F022
:102F50002CF4E2DF862F089580E008958FEF089526
:102F60008091940390919503892B39F0E8DF91E0EB
:102F7000811101C090E0892F089591E0FCCFCF939B
:102F8000DF93EC01688170E085E00E94B28E698178
:102F900070E084E00E94B28E6A8170E086E00E9458
:102FA000B28E88819981482F490F5527551F8A81F4
:102FB000840F952F911D21E0833091050CF420E0C2
:102FC0002093EF0703974CF088819981AA81809321
:102FD000F8169093F916A093FA16DF91CF91089501
:102FE0008F929F92AF92BF92CF92DF92EF92FF9219
:102FF000CF93DF9300D0CDB7DEB72FEF84179507BF
:1030000031F16A01052E000CEE08FF084C01092E73
:10301000000CAA08BB08681779072CF0CB014617EB
:1030200057070CF4CA019C01990F440B550B281942
:1030300039094A095B09AFEFB0E00E944CC0A70113
:103040009601281939094A095B090E9430C080910C
:103050001A08821751F020931A088FEF89831A8279
:1030600020952B83CE0101968ADF0F900F900F9051
:10307000DF91CF91FF90EF90DF90CF90BF90AF9016
:103080009F908F9008958F929F92AF92BF92CF9210
:10309000DF92EF92FF92CF93DF9300D0CDB7DEB7F0
:1030A0002FEF8417950731F16A01052E000CEE0809
:1030B000FF084C01092E000CAA08BB086817790705
:1030C0002CF0CB01461757070CF4CA019C01990F4D
:1030D000440B550B281939094A095B09AFEFB0E0D9
:1030E0000E944CC0A7019601281939094A095B09B9
:1030F0000E9430C080911A08821749F020931A0864
:1031000029831A828FEF8B83CE01019638DF0F90CF
:103110000F900F90DF91CF91FF90EF90DF90CF90C5
:10312000BF90AF909F908F9008950F930FB70F931C
:1031300000916E000D7F00936E0078940F930BB793
:103140000F930CB70F921F922F933F934F935F9360
:103150006F937F938F939F93AF93BF93EF93FF935F
:10316000112462D4FF91EF91BF91AF919F918F9104
:103170007F916F915F914F913F912F911F900F9091
:103180000CBF0F910BBF0F910260F89400936E007B
:103190000F910FBF0F911895CF93DF9310921F08D7
:1031A000C4E8D6E1198618860E94B9A71A862C9819
:1031B000C8E5D6E11986188690DC1A86809102014E
:1031C000807280930001DF91CF9108958F929F923A
:1031D000AF92BF92CF92DF92EF92FF920F931F9325
:1031E000CF93DF93B4E4A0E06A2F70E0AB014B0F04
:1031F000511D55954795411119C0ECE3FCE16591CE
:103200007491072E000C880B990B0E94EAB9DF918C
:10321000CF911F910F91FF90EF90DF90CF90BF90D3
:10322000AF909F908F900895B42FE0CFA41711F026
:10323000B41303C0E8E4FDE1E2CF9A012150310963
:10324000220F331F220F331FF901E65CF34EE59086
:10325000F490F901E25CF34EC591D4918E159F056F
:1032600018F3A42FC817D90708F4BECFF901E45CFE
:10327000F34E05911491F901E05CF34EC590D490A2
:103280008E199F09BC0190E080E00E94E8B94B01D3
:103290005C01B601601B710B072E000C880B990BAB
:1032A0000E94EAB99B01AC01C501B4010E9449BA70
:1032B0004B015C01CE19DF09BE0190E080E00E9465
:1032C000E8B99B01AC01C501B4010E9480C16B014A
:1032D0007C01B801110F880B990B0E94EAB99B0180
:1032E000AC01C701B6010E94A4C091CFBC012091DE
:1032F000D8073091D9074091D8075091D9072417A2
:10330000350731F481E02617370709F080E008958A
:103310009A01F1CF613271058105910538F4E9ED2B
:10332000F5E16591749190E080E00895AB01BC01F6
:103330004052510961097109411528E052076105A0
:103340007105C8F024E0529FC001112487529E4E9F
:10335000FC01329625913491FC0185919491AA2724
:10336000439FF001429F000CE11DFA1F11248E1BA8
:103370009F0BBC01D8CFDB01CA01B695A7959795E5
:1033800087958C7F9C0127523A4EF9018591949143
:10339000F9013296A591B49147704A9F90014B9FD5
:1033A000300D112443E0369527954A95E1F7821BAD
:1033B000930BDFCF0F930FB70F9300916E000F9316
:1033C0000D7F00936E0000916F000D7F00936F00E2
:1033D0000F930BB70F930CB70F921F922F933F933E
:1033E0004F935F936F937F938F939F93AF93BF930D
:1033F000EF93FF931124CDD4FF91EF91BF91AF9143
:103400009F918F917F916F915F914F913F912F91FC
:103410001F900F900CBF0F910BBF0F910260F8949B
:1034200000936F000F9100936E000F910FBF0F91EB
:1034300018958091A80880FF23C089988FEF80930A
:10344000AC078091A80881FF1EC08F988FEF8093F2
:10345000AD078091A80882FF19C080910B0180956B
:10346000827080930901439A8FEF8093AE07809119
:10347000A80883FF13C016988FEF8093AF070895B5
:10348000899A81E0DCCF8F9A81E0E1CF80910B01B6
:10349000827080930901439881E0E7CF169A81E01A
:1034A000ECCF8091EC03877F8093EC03129A81E04C
:1034B000089580E00E94121281E00E94121282E0C0
:1034C0000E941212EECF12988091EC0388608093D4
:1034D000EC030895813089F070F0823081F021E0B2
:1034E00030E001C0220F8A95EAF78091EC03822B2D
:1034F0008093EC0308955F98F2CF8A98F0CF909173
:1035000008019170909306014798E9CFCF93DF931C
:103510008091DD03811119C0C0911902D0911A0266
:10352000219720E030E040E05FE3609188167091E1
:10353000891680918A1690918B160E94A4C00E94D1
:10354000E8C121E06C177D070CF020E0822FDF91AD
:10355000CF9108954F925F926F927F928F929F9238
:10356000AF92BF92CF92DF92EF92FF920F931F9391
:10357000CF93DF93CDB7DEB76E970FB6F894DEBF6B
:103580000FBECDBF9E8F8D8F5B018A01FC01FF9620
:1035900020813181428153812D833E834F8358871F
:1035A000CA01B9010E94E8B96B017C01D5012D91D6
:1035B0003D914D915C910E9449BA0E946AC12B01D4
:1035C0003C01F8012081318142815381C701B6015C
:1035D0000E9449BA0E946AC14B015C01C301B20159
:1035E0000E94EDC169877A878B879C876837710550
:1035F0008105910540F428E730E040E050E029875C
:103600003A874B875C87C501B4010E94EDC169838D
:103610007A838B839C83683771058105910540F41B
:1036200088E790E0A0E0B0E089839A83AB83BC8315
:10363000AD8DBE8D95964D905D906D907C909897D8
:10364000FD01E55BFF4F608171818281938161158E
:1036500071058105910509F45BC10E94EAB96D8786
:103660007E878F87988B9B01AC0160E070E080E8DB
:103670009FE30E9480C120E030E040E05FE30E94D1
:1036800049BA4B015C01A7019601C701B6010E942E
:1036900049BA6B017C0169817A818B819C810E948E
:1036A000E8B99B01AC010E9449BA9B01AC01C7017A
:1036B000B6010E94A3C0A50194010E9449BA6D8B76
:1036C0007E8B8F8B988F69857A858B859C850E94F0
:1036D000E8B99B01AC010E9449BA698B7A8B8B8B4C
:1036E0009C8B9B01AC01C701B6010E94A3C0A50140
:1036F00094010E9449BA698F7A8F8B8F9C8F0E94A8
:103700006AC10E94EDC16B017C016D897E898F8940
:10371000988D0E9419C20E94EDC14B015C01D70136
:10372000C601880D991DAA1DBB1DA3019201281B6E
:10373000390B4A0B5B0BDA01C901B7FF5DC0C3014E
:10374000B2010E94E8B9298D3A8D4B8D5C8D0E94A3
:10375000A4C02D893E894F89588D0E94A3C020E0C6
:1037600030E040E05FE30E9449BA0E946AC16B0109
:103770007C0120E030E0A9010E94CBC218161CF0A9
:10378000C12CD12C7601C701B6010E94EDC16B019D
:103790007C014C145D046E047F0410F4730162011B
:1037A000530142018C189D08AE08BF08C701B6013D
:1037B0000E94E8B96D837E838F8398872D853E852F
:1037C0004F855889CA01B9010E94A4C09B01AC0170
:1037D0006D817E818F8198850E9449BA29893A89B5
:1037E0004B895C890E94A4C00E9411C30E94EDC154
:1037F0006D837E838F839887AD8DBE8D9996CD9294
:10380000DD92ED92FC929C97D301C201881999092F
:10381000AA09BB09ED8DFE8D85A796A7A7A7B0AB1A
:10382000ED5BFF4F29853A854B855C85208331838D
:1038300042835383ED8DFE8DE95BFF4F89819A8131
:10384000AB81BC8180839183A283B383ED8DFE8D98
:1038500086A997A9A0ADB1AD892B8A2B8B2B09F432
:1038600040C061A172A183A194A10E94E8B92091F6
:10387000D6083091D7084091D8085091D9080E94B5
:1038800049BA6B017C01C301B2010E94E8B99B01F6
:10389000AC01C701B6010E9480C16B017C016D8142
:1038A0007E818F8198850E94E8B9A70196010E94C8
:1038B00049BA0E94EDC1AD8DBE8DDC967C936E93AE
:1038C000DB9769817A818B819C810E94E8B9A7018D
:1038D00096010E9449BA0E94EDC1ED8DFE8D76AF32
:1038E00065AF6E960FB6F894DEBF0FBECDBFDF9109
:1038F000CF911F910F91FF90EF90DF90CF90BF90ED
:10390000AF909F908F907F906F905F904F900895B1
:10391000812C912C5401C12CD12C76016DCFEFE676
:10392000F0E080818260808308950E94501391E0CE
:103930009093DE078111F3CF0895CF93DF938091A9
:10394000CB0365995BC081608093CB0390910301A9
:103950008091CB0391FD54C082608093CB03809112
:10396000CB034B994FC084608093CB038091CB03F2
:103970009091CA03981709F447C092E09093C90345
:103980008093CA038091A608882309F44AC0C09195
:10399000C907C0FF0FC08091A80880FF0BC08091AD
:1039A000C80380FF07C08091B70881608093B70883
:1039B00080E0BBDFC1FF0FC08091A80881FF0BC072
:1039C0008091C80381FF07C08091B708826080930F
:1039D000B70881E0AADFC2FF24C08091A80882FF57
:1039E00020C08091C80382FF1CC08091B70884600A
:1039F0008093B70882E0DF91CF9197CF8E7FA4CFDD
:103A00008D7FABCF8B7FB0CF8091C903882309F422
:103A1000B9CF81508093C9038111B4CF9093C8036B
:103A2000B1CFDF91CF9108951F93CF93DF93809112
:103A30004B028F3708F49AC08F5790918E1690934F
:103A40001908992309F490C02C9A209162162093AA
:103A500018089091020121119095907290930001A5
:103A60008F5F80934B028091170891E089278093A4
:103A7000170880914A02980F85300CF090E0823050
:103A800009F4CFC00CF07FC0882309F494C08130C2
:103A900009F4BBC090934A02C0911408D091150854
:103AA000209709F451C0F89410910901127082E036
:103AB00011DD80910B011C161D060CF080958270A3
:103AC000809309011C161D060CF4DAC0439A20915C
:103AD00084003091850080910B01809588708093DF
:103AE0000901419A8091840090918500821B930B7B
:103AF000B0E0A0E043E0880F991FAA1FBB1F4A95C2
:103B0000D1F78097A105B10568F380910B0188700A
:103B100080930901419880910B0111118095827069
:103B200080930901112309F4ADC0439A78948091E0
:103B30001408909115081C161D060CF0A5C00197DD
:103B40009093150880931408F8DE80911C139091CF
:103B50001D13009729F0019790931D1380931C1358
:103B6000DF91CF911F9108952C986FCF90911908F4
:103B7000891708F02C9890911808891708F470CFCD
:103B8000909102016ACF843009F463C00CF45CC0E8
:103B9000853009F07FCF20911608211102C0809353
:103BA000160880911608815080931608882309F41E
:103BB00071CF95E06FCF809149028F5F80311CF407
:103BC0008093490267CF10924902809113088111B6
:103BD00013C0209184163091851630938716209358
:103BE0008616209158163091591630935B16209303
:103BF0005A1681E08093130810928516109284164D
:103C0000109259161092581645CF88E080937B0089
:103C100085E480937C0080917A00806480937A00B0
:103C200039CF80917A0086FD27C04091780050916D
:103C300079002091841630918516240F351F30931A
:103C400085162093841626CF88E080937B0086E437
:103C5000E0CF80917A0086FD11C0409178005091AC
:103C600079002091581630915916240F351F309342
:103C70005916209358160ECF92E00CCF94E00ACF3D
:103C8000439825CF439852CF01965ACFCF92DF92D7
:103C9000EF92FF92CF93DF93C82F0E94501394E0CE
:103CA000C99FE0011124FE01E152F84FC080D1808C
:103CB000E280F380811133DEC552D74FC701B601D0
:103CC0000E94EAB9288139814A815B810E9449BA00
:103CD000DF91CF91FF90EF90DF90CF9008950E94F9
:103CE00050139091D6169093D5169093D416909326
:103CF000D31694E69093D21621ED33E030931D1342
:103D000020931C1381110BDE81E08093DE07089560
:103D10008F3110F48F5F08958F510895CF93DF9303
:103D20009091D6168091D516891740F0891B41F4E1
:103D3000D0E0C0E0CE01DF91CF910895805EF6CF54
:103D40009091D216992351F0833030F48FEF890F80
:103D500019F08093D216ECCF1092D216C091D616DD
:103D600080E5C89FE0011124C451D74F888180FDB0
:103D7000DFCF8091D616CCDF8093D3169091D616E4
:103D80008091D4169813D6CF8091D3168093D416F1
:103D9000D1CF2F923F924F925F926F927F928F92EC
:103DA0009F92AF92BF92CF92DF92EF92FF920F93CA
:103DB0001F93CF93DF9300D000D000D0CDB7DEB7F4
:103DC0008FEF9FEF90938900809388000AE00B8328
:103DD000312C212C789480913D0290913E02892BC8
:103DE00009F468C09091B90881E0209137023091C0
:103DF00038029217130609F008F480E020913F0280
:103E000030914002232B09F457C09091B90811E07A
:103E1000198320913502309136029217130609F06A
:103E200008F4198281114BC08980882009F454C19B
:103E30001C821FEF02E08C80882009F47DC00E9464
:103E400096126091CA167091CB162091CD1630E073
:103E500041E050E0811102C04FEF5FEF249FC001AD
:103E6000259F900D349F900D1124860F971F9093DE
:103E7000CB168093CA162091AC0712161CF5813C14
:103E80009F4F2CF520918400309185008091840013
:103E900090918500821B930B0297C0F38091A80834
:103EA00091E098279093A80880FD85C08998109389
:103EB000AC070DC081E0A2CF21E02983B3CF01E0A0
:103EC0000C83B7CF222319F080349105DCF6809162
:103ED000CA169091CB169C01215C3F4F2F373105BC
:103EE00008F46EC04091AC0720E830E0141614F4DA
:103EF00020E83FEF820F931F9093CB168093CA1652
:103F0000842F440F990BAA0BBB0B4091DF075091F4
:103F1000E0076091E1077091E207840F951FA61FEB
:103F2000B71F8093DF079093E007A093E107B0935A
:103F3000E207889A41E04C838980882009F47CC09C
:103F40000E943F126091B9167091BA162091BC166A
:103F500030E041E050E0811102C04FEF5FEF249F5D
:103F6000C001259F900D349F900D1124860F971F3F
:103F70009093BA168093B9162091AD07121614F5D6
:103F8000813C9F4F24F520918400309185008091E1
:103F9000840090918500821B930B0297C0F380915F
:103FA000A808982F90279093A80881FD84C08F9827
:103FB0001093AD070CC0899A31E03093AC0787CFDE
:103FC0001C82BACF222319F080349105E4F6809147
:103FD000B9169091BA169C01215C3F4F2F373105DD
:103FE00008F46EC04091AD0720E830E0141614F4D8
:103FF00020E83FEF820F931F9093BA168093B91673
:10400000842F440F990BAA0BBB0B4091E3075091EF
:10401000E4076091E5077091E607840F951FA61FDE
:10402000B71F8093E3079093E407A093E507B0934D
:10403000E6078E9A41E049838C80811043C09980C5
:10404000911045C080913D0290913E0221E0892B64
:1040500061F03091B90821E08091370290913802E7
:104060003817190609F008F420E02C8380913F02EC
:1040700090914002892B69F13091B90841E0498360
:1040800080913502909136023817190609F008F42C
:104090001982211103C089808820F1F020918400C9
:1040A000309185008091840090918500821B930B54
:1040B0000297C0F3C0CE8F9A31E03093AD0787CF1F
:1040C0001982BACF8898A980AA2009F4BBCF8E980C
:1040D000B9CF51E05983DDCF8091D4079091D507B6
:1040E000A091D607B091D707892B8A2B8B2B09F08B
:1040F000C2C38091DE07882309F475C08091D80778
:104100009091D9071092DE07892B09F4B4C310925D
:10411000D9071092D8071092C9079091D5168091AF
:10412000D616981729F08091D616F2DD8093D61610
:104130000FEF1FEF98010093450210934602209362
:1041400047023093480200934102109342022093A9
:1041500043023093440280917C0790917D079093B5
:104160007B0780937A072EE231E030933802209368
:1041700037024FEF5FEF50933E0240933D02909322
:104180007F0780937E073093360220933502509349
:10419000400240933F021092CB161092CA168091B3
:1041A000DF079091E007A091E107B091E2078093CB
:1041B000CE169093CF16A093D016B093D11610922E
:1041C000BA161092B9168091E3079091E407A09176
:1041D000E507B091E6078093BD169093BE16A093B5
:1041E000BF16B093C0168091D8079091D907892B3C
:1041F00009F441C34091CE075091CF076091D00799
:104200007091D1078091CA079091CB07A091CC07FC
:10421000B091CD07481759076A077B0708F02BC3F1
:104220000091B90810E030E020E0841B950BA60B4C
:10423000B70B081719072A073B0710F4D901C80163
:10424000082F840F951FA61FB71F8093CE0790934A
:10425000CF07A093D007B093D107809088079090A4
:104260008907A0908A07B0908B078091980790915A
:104270009907A0919A07B0919B07880E991EAA1ED4
:10428000BB1E8092980790929907A0929A07B092CD
:104290009B07D501C40180959095A095B09588277E
:1042A000B7FD83959927AA27BB27382F8887B7FCA6
:1042B00018C08091840790918507A0918607B091DE
:1042C0008707B501A401481B590B6A0B7B0BDB0167
:1042D000CA018093980790939907A0939A07B09387
:1042E0009B07C0908C07D0908D07E0908E07F090D0
:1042F0008F0780919C0790919D07A0919E07B09198
:104300009F07C80ED91EEA1EFB1EC0929C07D092C2
:104310009D07E0929E07F0929F07D701C601809506
:104320009095A095B0958827B7FD83959927AA27E2
:10433000BB27182FF7FC18C0809184079091850740
:10434000A0918607B0918707B701A601481B590BBA
:104350006A0B7B0BDB01CA0180939C0790939D073E
:10436000A0939E07B0939F074090900750909107AD
:1043700060909207709093078091A0079091A10799
:10438000A091A207B091A307480E591E6A1E7B1E7A
:104390004092A0075092A1076092A2077092A307D3
:1043A00077FC18C08091840790918507A0918607BB
:1043B000B0918707B301A201481B590B6A0B7B0B15
:1043C000DB01CA018093A0079093A107A093A207E5
:1043D000B093A30740919407509195076091960779
:1043E000709197078091A4079091A507A091A607C7
:1043F000B091A707840F951FA61FB71F8093A4072E
:104400009093A507A093A607B093A707B7FD34C064
:1044100040918407509185076091860770918707C6
:10442000841B950BA60BB70B8093A4079093A5074D
:10443000A093A607B093A707E091D807F091D907FA
:1044400086A997A9A0ADB1AD892B8A2B8B2B09F436
:10445000E4C08091B8079091B907A091BA07B091D4
:10446000BB070197A109B1098093B8079093B907D9
:10447000A093BA07B093BB071C826091C91660FF76
:1044800030E02091B816722F717020FD02C00C949C
:10449000A12AF7FE02C00C94A12A269521706695E8
:1044A0006170A0917A07B0917B0780917C07909111
:1044B0007D07A817B90751F4332341F04091DC0779
:1044C0005091DD0750933E0240933D02E0917E07FC
:1044D000F0917F07FA83E9838E179F0751F47723C2
:1044E00041F04091DA075091DB075093400240932E
:1044F0003F02FC01EE0FFF1FE45EFA4F4091D2072E
:104500005091D3075183408340E0332321F041E0B1
:10451000611101C042E0FC01E351FC4F30813C7F5E
:10452000342B308330E0772321F031E0211101C0BA
:1045300032E0330F330F2081237F232B208301961A
:104540008F32F1E09F0709F46BC090937D07809351
:104550007C0780913702909138020197909338023E
:1045600080933702809135029091360201979093A3
:10457000360280933502A351BC4F8C91837011F4A5
:104580000E949612E981FA81E351FC4F8081869561
:104590008695837011F40E943F128091C91680FFA6
:1045A00063C0B7FC61C06091CA167091CB162091B0
:1045B000CC1630E041E050E081FD02C04FEF5FEFEC
:1045C000249FC001259F900D349F900D1124860FCC
:1045D000971F9093CB168093CA162091AC071216A2
:1045E00024F5813C9F4F34F5209184003091850063
:1045F0008091840090918500821B930B0297C0F3F9
:104600008091A80891E098279093A80880FD6CC03D
:1046100089983FEF3093AC070DC051E05C832DCFFC
:1046200010927D0710927C0794CF222319F08034DA
:104630009105D4F68091CA169091CB169C01215C0D
:104640003F4F2F37310508F457C02091AC071216A1
:104650000CF04FC020E83FEF820F931F9093CB16D2
:104660008093CA1651E058878091B81680FF64C0C5
:10467000F7FC62C06091B9167091BA162091BB1612
:1046800030E041E050E081FD02C04FEF5FEF249F3A
:10469000C001259F900D349F900D1124860F971F08
:1046A0009093BA168093B9162091AD07121634F57F
:1046B000813C9F4F44F5209184003091850080918A
:1046C000840090918500821B930B0297C0F3809128
:1046D000A80892E098279093A80881FD59C18F9867
:1046E0007FEF7093AD070FC0899A41E04093AC070C
:1046F000A1CF20E830E0B0CF1886B6CF222319F042
:1047000080349105C4F68091B9169091BA169C0137
:10471000215C3F4F10E02F37310570F02091AD073D
:1047200012160CF03AC120E83FEF820F931F9093CE
:10473000BA168093B91611E088848820E1F0409180
:10474000AC07042E000C550B660B770B8091DF072E
:104750009091E007A091E107B091E207840F951FC7
:10476000A61FB71F8093DF079093E007A093E10790
:10477000B093E207889A1123E1F04091AD07042E2F
:10478000000C550B660B770B8091E3079091E407C3
:10479000A091E507B091E607840F951FA61FB71FEC
:1047A0008093E3079093E407A093E507B093E607AF
:1047B0008E9A77FC22C04091AE07042E000C550B58
:1047C000660B770B8091E7079091E807A091E907C6
:1047D000B091EA07840F951FA61FB71F8093E707C4
:1047E0009093E807A093E907B093EA0780910B0143
:1047F0008095887080930901419A9C809920E1F00E
:104800004091AF07042E000C550B660B770B80917F
:10481000EB079091EC07A091ED07B091EE07840FA4
:10482000951FA61FB71F8093EB079093EC07A093EB
:10483000ED07B093EE07149A209184003091850023
:104840008091840090918500821B930B0297C0F3A6
:10485000A884A110889811118E9877FC06C08091C9
:104860000B018870809309014198BC80B1101498A5
:10487000015009F0F2CC8091450290914602A0913E
:104880004702B09148020097A105B10509F088C020
:104890004091A8075091A9076091AA077091AB07B2
:1048A0008091800790918107A0918207B091830742
:1048B000840F951FA61FB71F8093A8079093A90781
:1048C000A093AA07B093AB07B7FD51C04091AF07C3
:1048D000042E000C550B660B770B0091EB07109123
:1048E000EC072091ED073091EE07040F151F261FEE
:1048F000371F0093EB071093EC072093ED073093DD
:10490000EE070091B8071091B9072091BA073091CE
:10491000BB07400F511F621F731F4093B80750938E
:10492000B9076093BA077093BB0740918407509111
:1049300085076091860770918707841B950BA60BEE
:10494000B70B8093A8079093A907A093AA07B093E9
:10495000AB07149A209184003091850080918400E7
:1049600090918500821B930B0297C0F3149880915D
:10497000410290914202A0914302B091440280937F
:10498000450290934602A0934702B09348020DC09F
:104990008F9A81E08093AD07B6CE20E830E0C5CE97
:1049A0008F3F9F4FAF4FBF4F11F38091D40790912E
:1049B000D507A091D607B091D707892B8A2B8B2BCF
:1049C00009F012C5E091D807F091D9073097C9F1E5
:1049D0008091CE079091CF07A091D007B091D107D9
:1049E0004091CA075091CB076091CC077091CD07D9
:1049F00084179507A607B70758F11092D9071092A8
:104A0000D8071092C9079091D5168091D61698179D
:104A100029F08091D6167CD98093D6162FEF3FEFE0
:104A2000A9012093450230934602409347025093D8
:104A30004802209341023093420240934302509334
:104A4000440250EDC52E57E0D52EE12CF12CD6C0F6
:104A50004091C5075091C6076091C7077091C8077C
:104A6000481759076A077B0708F435C18091C107C9
:104A70009091C207A091C307B091C40741A952A960
:104A800063A974A98824859F912C969F9001A69F65
:104A9000300DA59F200D311D869F900C211D381DC6
:104AA000959F900C211D381DA49F900C211D381D31
:104AB000949F910C281D381D789F990C201D311D45
:104AC000799F300D1124DF01AD5BBF4F8D919D911A
:104AD0000D90BC91A02D820F931FA11DB11D80933D
:104AE000BD079093BE07A093BF07B093C007FF9682
:104AF0004081518162817381481759076A077B079A
:104B000040F44093BD075093BE076093BF07709376
:104B1000C0072091BC076091BD077091BE078091CE
:104B2000BF079091C00704C0660F771F881F991FA9
:104B30002A95D2F70E9416936B017C018091C107E0
:104B40009091C207A091C307B091C4078C0D9D1D21
:104B5000AE1DBF1D8093C1079093C207A093C307EA
:104B6000B093C407A090D807B090D907BA82A982A1
:104B7000D501D6964D915D916D917C91D997411556
:104B8000510561057105D1F1DB968D919C91B0E0E5
:104B9000A0E00091B8071091B9072091BA073091B1
:104BA000BB07081719072A073B071CF040E050E035
:104BB000BA018091BD079091BE07A091BF07B09147
:104BC000C0074A015B01880E991EAA1EBB1EC501C3
:104BD000B4010E948A19A981BA81DA962C9104C085
:104BE000660F771F881F991F2A95D2F7609341029D
:104BF0007093420280934302909344028091D807BD
:104C00009091D907892B09F0E7C388D89093D907E9
:104C10008093D807892B09F4DFC38090D807909040
:104C2000D90799868886D4018C9183FD97C15596C2
:104C30004D905D906D907C90589781E041145104A7
:104C40006104710409F480E0E885F985C18CD28C97
:104C5000E38CF48CC114D104E104F10409F0AAC17D
:104C6000A885B9855D964D915D916D917C919097E8
:104C7000411551056105710509F084608093C907EC
:104C80001092B0071092B1071092B2071092B307BA
:104C90001092C1071092C2071092C3071092C40766
:104CA000E885F985FF9680819181A281B38120E01A
:104CB000893EEFE09E07A105B10508F07DC1880F90
:104CC000991FAA1FBB1F893EFFE09F07A105B105E1
:104CD00078F72F5FEDCF4091B4075091B507609101
:104CE000B6077091B707481759076A077B0708F09E
:104CF000E1C08091B0079091B107A091B207B09147
:104D0000B30741A952A963A974A98824859F912C4E
:104D1000969F9001A69F300DA59F200D311D869F67
:104D2000900C211D381D959F900C211D381DA49FAE
:104D3000900C211D381D949F910C281D381D789FC3
:104D4000990C201D311D799F300D1124A90170E0AF
:104D500060E08091BD079091BE07A091BF07B09120
:104D6000C007E95BFF4F80809180A280B380481725
:104D700059076A077B0758F4841B950BA60BB70BE2
:104D800088169906AA06BB0610F44C015D018091B5
:104D9000BC079501840104C0000F111F221F331F9F
:104DA0008A95D2F7C901B8010E9416936B017C0164
:104DB0008091B0079091B107A091B207B091B3076D
:104DC0008C0D9D1DAE1DBF1D8093B0079093B10744
:104DD000A093B207B093B3070091D8071091D907F9
:104DE0001A830983D801D6964D905D906D907C9082
:104DF000D997411451046104710409F4FFCEDD9682
:104E00008D919C91B0E0A0E04091B8075091B90716
:104E10006091BA077091BB0784179507A607B7077B
:104E20000CF094C384149504A604B70409F497C342
:104E300084149504A604B70498F5C301B201681957
:104E400079098A099B0911E00E948A19E981FA818E
:104E500022AD04C0660F771F881F991F2A95D2F7CD
:104E60006093410270934202809343029093440204
:104E70008091A80883FB992790F9191709F4BECEF1
:104E800098E089278093A8088091AF078195809347
:104E9000AF0784149504A604B70450F41698AECE58
:104EA000C501B401641975098609970910E0CCCFD2
:104EB000169AA4CE8091390290913A02A0913B02B9
:104EC000B0913C02B7FF41C0FF962091BC076081C2
:104ED00071818281938104C0660F771F881F991F9B
:104EE0002A95D2F70E9416936093390270933A0282
:104EF00080933B0290933C02A090D807B090D907D2
:104F0000BA82A982F50186A997A9A0ADB1AD892B76
:104F10008A2B8B2BD1F0FF966081718182819381E6
:104F20000E948A19A981BA81DA962C9104C0660F71
:104F3000771F881F991F2A95D2F7609341027093BB
:104F400042028093430290934402C0903902D09071
:104F50003A02E0903B02F0903C0250CE8885998561
:104F600045960E9473111092D9071092D80710929B
:104F7000C9079091D5168091D616981731F0809177
:104F8000D6160E94881E8093D61688248A94982C60
:104F900054018092450290924602A0924702B0923C
:104FA00048028092410290924202A0924302B09243
:104FB00044022BCE826054CE2093BC07822E912CCB
:104FC0009A828982E885F98585A196A1A7A1B0A5D5
:104FD00004C0880F991FAA1FBB1F2A95D2F7809380
:104FE000CA079093CB07A093CC07B093CD070027B7
:104FF00011279801081B190B2A0B3B0B0093A807DC
:105000001093A9072093AA073093AB070093980742
:105010001093990720939A0730939B0700939C075E
:1050200010939D0720939E0730939F070093A0073E
:105030001093A1072093A2073093A3070093A4071E
:105040001093A5072093A6073093A70701A112A1EB
:1050500023A134A148015901880C991CAA1CBB1C2E
:105060008C829D82AE82BF8253014201880C991CC2
:10507000AA1CBB1C8092880790928907A0928A077D
:10508000B0928B0746015701880C991CAA1CBB1CC7
:1050900080928C0790928D07A0928E07B0928F0716
:1050A000440F551F661F771F409390075093910739
:1050B00060939207709393070C811D812E813F812D
:1050C00000939407109395072093960730939707C2
:1050D000880F991FAA1FBB1F809384079093850791
:1050E000A0938607B09387078091C91680FF3CC0C4
:1050F000E5A9E0FF0AC09201A30160E070E080E052
:1051000090E00E9493C029013A018091CE169091BF
:10511000CF16A091D016B091D116840D951DA61D65
:10512000B71D8093CE169093CF16A093D016B09350
:10513000D1168091C9168D7FE0FF82608093C916D9
:1051400020917A0730917B0780917C0790917D07B1
:105150002817390749F08091A80880FFECC1E16069
:10516000A885B985D596EC938091B8161091A808BA
:1051700080FF43C0A885B985D596EC9146015701BB
:10518000AE2FA270E1FF0AC09601A70160E070E0B7
:1051900080E090E00E9493C049015A014091BD1601
:1051A0005091BE166091BF167091C016480D591DE2
:1051B0006A1D7B1D4093BD165093BE166093BF16AB
:1051C0007093C01691E0A11190E08091B81690FB09
:1051D00081F98093B81620917E0730917F078091E6
:1051E0007C0790917D072817390739F011FFA5C179
:1051F000E260A885B985D596EC931092CE071092FF
:10520000CF071092D0071092D107E885F98581A5C4
:1052100092A5A3A5B4A5098004C0880F991FAA1F51
:10522000BB1F0A94D2F78093C5079093C607A0933B
:10523000C707B093C80785A596A5A7A5B0A90980FB
:1052400004C0880F991FAA1FBB1F0A94D2F780932E
:10525000B4079093B507A093B607B093B70786A994
:1052600097A9A0ADB1AD892B8A2B8B2BF1F082AD24
:105270008C809D80AE80BF8004C0880C991CAA1CC5
:10528000BB1C8A95D2F7D501C401098004C0880FE0
:10529000991FAA1FBB1F0A94D2F78093800790938F
:1052A0008107A0938207B0938307A885B985D59617
:1052B0008C91811721F08093A8080E94191A0E94EE
:1052C0009D1C88248A94982C5401809239029092D3
:1052D0003A02A0923B02B0923C02088519850D5B10
:1052E0001F4FF80180819181A281B3818093BD0716
:1052F0009093BE07A093BF07B093C007BC01CD0138
:10530000098004C0660F771F881F991F0A94D2F77F
:105310000E9416936B017C018091C1079091C20796
:10532000A091C307B091C4078C0D9D1DAE1DBF1D7C
:105330008093C1079093C207A093C307B093C4079B
:105340008090D8079090D9079A828982D401D69606
:105350004D915D916D917C91D997411551056105F4
:105360007105D1F1DB968D919C91B0E0A0E00091A8
:10537000B8071091B9072091BA073091BB070817F9
:1053800019072A073B071CF040E050E0BA01E98109
:10539000FA81ED5BFF4F80819181A281B3814A0147
:1053A0005B01880E991EAA1EBB1EC501B4010E9496
:1053B0008A19A981BA81DA962C9104C0660F771FE9
:1053C000881F991F2A95D2F7609341027093420279
:1053D0008093430290934402C092D407D092D507A1
:1053E000E092D607F092D707C0904502D0904602CF
:1053F000E0904702F090480220913F023091400235
:1054000040913D0250913E028090D4079090D50784
:10541000A090D607B090D707FC2DED2D7E2D6F2DD7
:105420008C149D04AE04BF0420F4F82DE92D7A2DD0
:105430006B2D2901712C612C8F2F9E2FA72FB62F3A
:10544000481659066A067B0610F4D301C9012A01E1
:10545000712C612C481659066A067B0610F4D3019C
:10546000CA01881A990AAA0ABB0A8092D4079092A4
:10547000D507A092D607B092D707FC016091D2075A
:105480007091D307680F791F7093D3076093D20789
:105490004F3F540731F0481B590B50933E02409345
:1054A0003D022F3F320731F02E1B3F0B309340025D
:1054B00020933F022FEFC216D206E206F20661F0F9
:1054C000C81AD90AEA0AFB0AC0924502D0924602DB
:1054D000E0924702F0924802F89480918400909103
:1054E000850040960B8101500B83002341F12E0E65
:1054F0003F1E2816390610F40C94EA1E30928900DB
:105500002092880029960FB6F894DEBF0FBECDBF5B
:10551000DF91CF911F910F91FF90EF90DF90CF908F
:10552000BF90AF909F908F907F906F905F904F90C3
:105530003F902F900895EE7F13CEED7F5ACE1C0141
:10554000DDCF70E031110C944D2227C8412C512C35
:10555000320181149104A104B10409F0A1CC882482
:105560008A94982C54018092410290924202A09217
:105570004302B092440242CBCF93DF931F92CDB748
:10558000DEB7898360E0CE0101960E945D1361E081
:10559000CE0101960E945D1362E0CE0101960E9449
:1055A0005D1389810F90DF91CF910895CF93DF93A1
:1055B00080E00E94461ECEE1D3E1688379838A832E
:1055C0009B8381E00E94461E6C837D838E839F8334
:1055D00082E00E94461E688779878A879B87DF91D1
:1055E000CF9108950C94A7918091B708882319F062
:1055F0001092B708089560E085E09FE00E94918DC9
:105600001092F0121092C0031092C1031092C203C4
:105610001092C3031092C4031092C5031092C603E4
:105620001092C7031092BC031092BD031092BE03E8
:105630001092BF0308958091F0128130E9F082301A
:10564000C9F40E9426156093BC037093BD03809338
:10565000BE039093BF0381E08093F0120E94D49325
:105660006093C0037093C1038093C2039093C303FC
:1056700081E00895C5DFEFCF80E008958091F012BA
:105680008150823070F41092F0120E94D493609393
:10569000C4037093C5038093C6039093C70381E04E
:1056A000089580E0089520918C1630918D1626354E
:1056B00031053CF420916016309161162630310599
:1056C0001CF0882319F0B7CF6111D8CF08958F92BD
:1056D0009F92AF92BF92CF92DF92EF92FF920F9381
:1056E0001F93CF93DF931092B8031092B7032FE369
:1056F0002093BB031092BA031092B9031092B30324
:105700001092B4031092B5031092B6039C01F901F4
:1057100090812F5F3F4F9032D1F39E34C9F4818145
:1057200090ED980F9A3020F08D3211F08B3281F489
:1057300032969F012F5F3F4F808180538A3008F45B
:105740006BC09F012F5F3F4F8081803209F466C09C
:10575000F0937613E09375138F010F5F1F4FC08195
:105760006AE270E0C8010E94A3C3009731F0FC0117
:10577000319780818032E1F31182CD3421F0C4353C
:1057800011F0C734E1F5F80180810F5F1F4F8032BF
:10579000D1F380538A3098F5C093BB0330E020E00A
:1057A0006AE0AF014F5F5F4F629FC001639F900D42
:1057B00011249C01205331098081280F311D87FD60
:1057C0003A95FA01808180538A3058F33093BA03B6
:1057D0002093B903DF0131968C918032D9F3CD3417
:1057E00049F52E31310539F0D8F42731310519F05A
:1057F0002C313105F9F4B093B803A093B703DF91CE
:10580000CF911F910F91FF90EF90DF90CF90BF90BD
:10581000AF909F908F900895F9018BCFF90191CFB0
:105820002537310538F02737310528F3203A83E052
:10583000380709F3D091751340E050E0BA0110E049
:1058400000E0C12CD12C7601C394FD0131968C91DE
:10585000882309F47FC08132E1F4CD34D1F42032C1
:105860003105B9F44093B3035093B4036093B50387
:105870007093B603F093B803E093B70363E270E06C
:10588000CF010E94A3C3009709F4B9CFFC01108295
:10589000B6CF81548A3108F058C0DF019D91903213
:1058A00091F0A0EDA90FAA30E8F09E3271F4918139
:1058B00090539A30B8F00115110519F48F01015079
:1058C000110990E013C0FD01E8CF9D3211F09B3229
:1058D00091F79181A0EDA90FAA3020F09E3259F7DF
:1058E0009281E6CF9E2F9D1B309759F3A82FB0E0F1
:1058F0004601570104C0880C991CAA1CBB1C8A9540
:10590000D2F7482959296A297B29A756BC4F9C936D
:1059100080818154DF018A3108F497CFDF018191C2
:10592000882309F492CF90ED980F9A30B8F393ED55
:10593000980F923098F38B3289F3CD010196EC9158
:10594000E03209F082CFDC01F8CF0115110501F733
:105950008D01DECF1093B8030093B7034093B303D8
:105960005093B4036093B5037093B60348CF0F937D
:105970001F93CF938091940390919503009709F121
:10598000FC018F01C1912C2F2F7DA1F0C53431F086
:10599000C53621F0C83511F0C83799F7F8011082E3
:1059A00070E060E00E94C2B5F801C083CF911F9102
:1059B0000F91089570E060E0CF911F910F910C94CA
:1059C000C2B560E070E0CB01F1CF0E94C41488231F
:1059D00041F081E02091940330919503232B09F449
:1059E00080E008954F925F926F927F92AF92BF9244
:1059F000CF92DF92EF92FF920F931F93CF9386E0A7
:105A0000A82E83E0B82E92EFE92E92E1F92E0BE555
:105A100012E022E0C22E26E1D22EC0E0F5018191F3
:105A20005F01D3DF882309F476C0A1DF2B013C019D
:105A30008C2F0E949D14882309F463C0F8012081F3
:105A4000318142815381C301B2010E94A4C0F70198
:105A50006083718382839383CF5FF4E0EF0EF11C48
:105A60000C5F1F4F84E0C80ED11CC330B9F685E42B
:105A7000ACDF882309F45AC07ADF6B017C0183E034
:105A80000E949D14882371F0209167023091680272
:105A90004091690250916A02C701B6010E94A4C0F8
:105AA0006B017C01C092FE12D092FF12E0920013B3
:105AB000F092011386E40E94389020E030E0A901C2
:105AC0000E94CBC218167CF452DF20E030E040E7A1
:105AD00052E40E9480C16093130270931402809379
